:100000000C942A000C943F000C943F000C943F0089
:100010000C943F000C943F000C943F000C943F0064
:100020000C943F000C943F000C943F000C943F0054
:100030000C943F000C943F000C943F000C943F0044
:100040000C943F000C943F000C943F000C943F0034
:100050000C943F0011241FBECFE5D8E0DEBFCDBF1A
:1000600010E0A0E6B0E0E2E9FBE102C005900D92ED
:10007000A838B107D9F70E94A50C0C94C70D0C94B1
:100080000000CF93DF93CDB7DEB7EA970FB6F894B1
:10009000DEBF0FBECDBF1982BCC28981282F30E0E0
:1000A000822F932F880F991F880F991F820F931FFC
:1000B000880F991F880F991F880F991F8E579F4F80
:1000C000E82FF92F608171818981282F30E0822FFC
:1000D000932F880F991F880F991F820F931F880FE6
:1000E000991F880F991F880F991F80589F4FE82FDD
:1000F000F92F8081918140E050E017D78981282F26
:1001000030E0822F932F880F991F880F991F820F3D
:10011000931F880F991F880F991F880F991F8C575D
:100120009F4FE82FF92F608171818981282F30E05E
:10013000822F932F880F991F880F991F820F931F6B
:10014000880F991F880F991F880F991F80589F4FFC
:10015000E82FF92F8081918140E050E0E6D6898137
:10016000282F30E0822F932F880F991F880F991F17
:10017000820F931F880F991F880F991F880F991F4F
:100180008A579F4FE82FF92F608171818981282F2D
:1001900030E0822F932F880F991F880F991F820FAD
:1001A000931F880F991F880F991F880F991F8058D8
:1001B0009F4FE82FF92F8081918140E050E0B5D624
:1001C0001A823FC08981282F30E08A81482F50E071
:1001D000822F932F880F991F880F991F820F931FCB
:1001E000880F991F880F991F840F951F0896880FF5
:1001F000991F805A9F4FE82FF92F60817181898163
:10020000282F30E08A81482F50E0822F932F880FCB
:10021000991F880F991F820F931F880F991F880FAE
:10022000991F840F951F880F991F805A9F4FE82FA1
:10023000F92F8081918140E050E077D68A818F5FED
:100240008A838A81883008F4BDCF80E090E0A0E204
:10025000B2E48B839C83AD83BE8320E030E04AE729
:1002600053E46B817C818D819E81FCDBB92FA82FAB
:10027000972F862F89AB9AABABABBCAB20E030E0BD
:1002800040E85FE369A97AA98BA99CA965DB88236B
:100290002CF481E090E09EAB8DAB43C020E03FEFBB
:1002A0004FE757E469A97AA98BA99CA9D6DB181650
:1002B0006CF520E030E040E251E46B817C818D817F
:1002C0009E81D0DBB92FA82F972F862F682F792FEB
:1002D0008A2F9B2F46DBB92FA82F972F862F9EABF7
:1002E0008DAB0FC089E190E098AF8FAB8FA998AD2F
:1002F0000197F1F798AF8FAB8DA99EA901979EAB9F
:100300008DAB8DA99EA9892B69F715C069A97AA91A
:100310008BA99CA926DBB92FA82F972F862F9EABE0
:100320008DAB8DA99EA99AAF89AF89AD9AAD019782
:10033000F1F79AAF89AF698188E388D180E090E0D6
:10034000A0E0B0E48F839887A987BA8720E030E0E7
:100350004AE753E46F81788589859A8583DBB92FD5
:10036000A82F972F862F8FA398A7A9A7BAA720E019
:1003700030E040E85FE36FA178A589A59AA5ECDAA3
:1003800088232CF481E090E09CA78BA743C020E059
:100390003FEF4FE757E46FA178A589A59AA55DDBEC
:1003A00018166CF520E030E040E251E46F8178856A
:1003B00089859A8557DBB92FA82F972F862F682F0D
:1003C000792F8A2F9B2FCDDAB92FA82F972F862F21
:1003D0009CA78BA70FC089E190E09EA78DA78DA554
:1003E0009EA50197F1F79EA78DA78BA59CA50197C8
:1003F0009CA78BA78BA59CA5892B69F715C06FA11E
:1004000078A589A59AA5ADDAB92FA82F972F862FA1
:100410009CA78BA78BA59CA598AB8FA78FA598A908
:100420000197F1F798AB8FA769818FE00FD180E03A
:1004300090E0A0E0B0E48B879C87AD87BE8720E08A
:1004400030E04AE753E46B857C858D859E850ADB29
:10045000B92FA82F972F862F8D8F9E8FAF8FB8A380
:1004600020E030E040E85FE36D8D7E8D8F8D98A1B8
:1004700073DA88232CF481E090E09AA389A343C027
:1004800020E03FEF4FE757E46D8D7E8D8F8D98A173
:10049000E4DA18166CF520E030E040E251E46B85B8
:1004A0007C858D859E85DEDAB92FA82F972F862F24
:1004B000682F792F8A2F9B2F54DAB92FA82F972FC7
:1004C000862F9AA389A30FC089E190E09CA38BA3F8
:1004D0008BA19CA10197F1F79CA38BA389A19AA161
:1004E00001979AA389A389A19AA1892B69F715C0BD
:1004F0006D8D7E8D8F8D98A134DAB92FA82F972F0F
:10050000862F9AA389A389A19AA19EA38DA38DA1C9
:100510009EA10197F1F79EA38DA3698181E096D0FA
:1005200080E090E0A0E0B0E48F87988BA98BBA8B35
:1005300020E030E04AE753E46F85788989899A8919
:1005400091DAB92FA82F972F862F8B8B9C8BAD8B91
:10055000BE8B20E030E040E85FE36B897C898D89C9
:100560009E89FAD988232CF481E090E0988F8F8BB4
:1005700043C020E03FEF4FE757E46B897C898D89CA
:100580009E896BDA18166CF520E030E040E251E409
:100590006F85788989899A8965DAB92FA82F972F6D
:1005A000862F682F792F8A2F9B2FDBD9B92FA82F61
:1005B000972F862F988F8F8B0FC089E190E09A8FAD
:1005C000898F898D9A8D0197F1F79A8F898F8F89FD
:1005D000988D0197988F8F8B8F89988D892B69F7CC
:1005E00015C06B897C898D899E89BBD9B92FA82FAD
:1005F000972F862F988F8F8B8F89988D9C8F8B8FBD
:100600008B8D9C8D0197F1F79C8F8B8F89818F5FEC
:1006100089838981882309F440CD40E050E067E078
:1006200070E083E090E081D441E050E067E070E06A
:1006300083E090E0D3D780E090E0EA960FB6F8949C
:10064000DEBF0FBECDBFDF91CF910895CF93DF9373
:10065000CDB7DEB76F970FB6F894DEBF0FBECDBF34
:100660008E8F6F8F40E050E067E070E083E090E0B5
:100670005CD441E050E067E070E083E090E0AED70A
:100680008F8D282F30E0822F932F880F991F880F8E
:10069000991F820F931F880F991F880F991F880F2A
:1006A000991F8E579F4FA82FB92F6D917C918F8DD9
:1006B000282F30E0822F932F880F991F880F991FC2
:1006C000820F931F880F991F880F991F880F991FFA
:1006D00080589F4FE82FF92F8081918140E050E0B2
:1006E0007DD78F8D282F30E0822F932F880F991F71
:1006F000880F991F820F931F880F991F880F991FCA
:10070000880F991F8C579F4FA82FB92F6D917C91FF
:100710008F8D282F30E0822F932F880F991F880FFD
:10072000991F820F931F880F991F880F991F880F99
:10073000991F80589F4FE82FF92F8081918140E0C9
:1007400050E04CD719824EC08E8D882F90E02981C1
:10075000222F30E002C0959587952A95E2F78170A7
:100760009927E82FF92F8F8D282F30E08981482F86
:1007700050E0822F932F880F991F880F991F820FA7
:10078000931F880F991F880F991F840F951F089634
:10079000880F991F805A9F4FA82FB92F6D917C9178
:1007A0008F8D282F30E08981482F50E0822F932FA2
:1007B000880F991F880F991F820F931F880F991F09
:1007C000880F991F840F951F880F991F805A9F4F7C
:1007D000A82FB92F8D919C914E2F5F2FFFD6898125
:1007E0008F5F89838981883008F4AECF8F8D282F61
:1007F00030E0822F932F880F991F880F991F820F47
:10080000931F880F991F880F991F880F991F8A5768
:100810009F4FE82FF92F608171818F8D282F30E055
:10082000822F932F880F991F880F991F820F931F74
:10083000880F991F880F991F880F991F80589F4F05
:10084000A82FB92F8D919C9141E050E0C7D680E050
:1008500090E0A0E0B0E48A839B83AC83BD8320E07A
:1008600030E04AE753E46A817B818C819D81FAD82C
:10087000B92FA82F972F862F8C8B9D8BAE8BBF8B7C
:1008800020E030E040E85FE36C897D898E899F89B4
:1008900063D888232CF481E090E0998F888F43C03F
:1008A00020E03FEF4FE757E46C897D898E899F896F
:1008B000D4D818166CF520E030E040E251E46A81AB
:1008C0007B818C819D81CED8B92FA82F972F862F21
:1008D000682F792F8A2F9B2F44D8B92FA82F972FB5
:1008E000862F998F888F0FC089E190E09B8F8A8F28
:1008F0008A8D9B8D0197F1F79B8F8A8F888D998DBB
:100900000197998F888F888D998D892B69F715C0EC
:100910006C897D898E899F8924D8B92FA82F972F1C
:10092000862F998F888F888D998D9D8F8C8F8C8D38
:100930009D8D0197F1F79D8F8C8F8F8D282F30E043
:10094000822F932F880F991F880F991F820F931F53
:10095000880F991F880F991F880F991F8A579F4FDB
:10096000E82FF92F608171818F8D282F30E0822F41
:10097000932F880F991F880F991F820F931F880F3D
:10098000991F880F991F880F991F80589F4FA82F74
:10099000B92F8D919C9140E050E020D680E090E00E
:1009A000A0E0B0E48E839F83A887B98720E030E081
:1009B0004AE753E46E817F818885998553D8B92FA2
:1009C000A82F972F862F8A879B87AC87BD8720E02B
:1009D00030E040E85FE36A857B858C859D85BCD7E8
:1009E00088232CF481E090E09F878E8743C020E02D
:1009F0003FEF4FE757E46A857B858C859D852DD831
:100A000018166CF520E030E040E251E46E817F8101
:100A10008885998527D8B92FA82F972F862F682FDB
:100A2000792F8A2F9B2F9DD7B92FA82F972F862FED
:100A30009F878E870FC089E190E0998B888B88898A
:100A400099890197F1F7998B888B8E859F850197FE
:100A50009F878E878E859F85892B69F715C06A854C
:100A60007B858C859D857DD7B92FA82F972F862FC5
:100A70009F878E878E859F859B8B8A8B8A899B8992
:100A80000197F1F79B8B8A8B80E090E06F960FB611
:100A9000F894DEBF0FBECDBFDF91CF910895CF9305
:100AA000DF93CDB7DEB76F970FB6F894DEBF0FBEFA
:100AB000CDBF8E8F6F8F8F8D282F30E0822F932F99
:100AC000880F991F880F991F820F931F880F991FF6
:100AD000880F991F880F991F8E579F4FA82FB92FE6
:100AE0006D917C918F8D282F30E0822F932F880F6E
:100AF000991F880F991F820F931F880F991F880FC6
:100B0000991F880F991F80589F4FE82FF92F8081D8
:100B1000918141E050E062D58F8D282F30E0822F07
:100B2000932F880F991F880F991F820F931F880F8B
:100B3000991F880F991F880F991F8C579F4FA82FB7
:100B4000B92F6D917C918F8D282F30E0822F932FBC
:100B5000880F991F880F991F820F931F880F991F65
:100B6000880F991F880F991F80589F4FE82FF92FE2
:100B70008081918140E050E031D519824EC08E8D48
:100B8000882F90E02981222F30E002C0959587952B
:100B90002A95E2F781709927E82FF92F8F8D282F5A
:100BA00030E08981482F50E0822F932F880F991FC2
:100BB000880F991F820F931F880F991F880F991F05
:100BC000840F951F0896880F991F805A9F4FA82F52
:100BD000B92F6D917C918F8D282F30E08981482F1E
:100BE00050E0822F932F880F991F880F991F820F33
:100BF000931F880F991F880F991F840F951F880FC7
:100C0000991F805A9F4FA82FB92F8D919C914E2FDD
:100C10005F2FE4D489818F5F89838981883008F4CC
:100C2000AECF8F8D282F30E0822F932F880F991F02
:100C3000880F991F820F931F880F991F880F991F84
:100C4000880F991F8A579F4FE82FF92F6081718174
:100C50008F8D282F30E0822F932F880F991F880FB8
:100C6000991F820F931F880F991F880F991F880F54
:100C7000991F80589F4FA82FB92F8D919C9141E0CB
:100C800050E0ACD480E090E0A0E0B0E48A839B83A5
:100C9000AC83BD8320E030E04AE753E46A817B8186
:100CA0008C819D81DFD6B92FA82F972F862F8C8B13
:100CB0009D8BAE8BBF8B20E030E040E85FE36C891A
:100CC0007D898E899F8948D688232CF481E090E025
:100CD000998F888F43C020E03FEF4FE757E46C893E
:100CE0007D898E899F89B9D618166CF520E030E091
:100CF00040E251E46A817B818C819D81B3D6B92F1A
:100D0000A82F972F862F682F792F8A2F9B2F29D6D0
:100D1000B92FA82F972F862F998F888F0FC089E121
:100D200090E09B8F8A8F8A8D9B8D0197F1F79B8F27
:100D30008A8F888D998D0197998F888F888D998D4D
:100D4000892B69F715C06C897D898E899F8909D6A1
:100D5000B92FA82F972F862F998F888F888D998DDF
:100D60009D8F8C8F8C8D9D8D0197F1F79D8F8C8F32
:100D70008F8D282F30E0822F932F880F991F880F97
:100D8000991F820F931F880F991F880F991F880F33
:100D9000991F8A579F4FE82FF92F608171818F8D9E
:100DA000282F30E0822F932F880F991F880F991FCB
:100DB000820F931F880F991F880F991F880F991F03
:100DC00080589F4FA82FB92F8D919C9140E050E003
:100DD00005D480E090E0A0E0B0E48E839F83A887F4
:100DE000B98720E030E04AE753E46E817F8188854F
:100DF000998538D6B92FA82F972F862F8A879B875A
:100E0000AC87BD8720E030E040E85FE36A857B8502
:100E10008C859D85A1D588232CF481E090E09F8767
:100E20008E8743C020E03FEF4FE757E46A857B851C
:100E30008C859D8512D618166CF520E030E040E2D6
:100E400051E46E817F81888599850CD6B92FA82FB2
:100E5000972F862F682F792F8A2F9B2F82D5B92F16
:100E6000A82F972F862F9F878E870FC089E190E04C
:100E7000998B888B888999890197F1F7998B888B51
:100E80008E859F8501979F878E878E859F85892B6D
:100E900069F715C06A857B858C859D8562D5B92FDC
:100EA000A82F972F862F9F878E878E859F859B8B58
:100EB0008A8B8A899B890197F1F79B8B8A8B80E0CB
:100EC00090E06F960FB6F894DEBF0FBECDBFDF91F6
:100ED000CF910895CF93DF9300D01F92CDB7DEB7A7
:100EE0009A8389836B8389819A81892B79F482E043
:100EF00090E015C089819A81E82FF92F80816B815C
:100F0000CEDD89819A8101969A83898389819A812C
:100F1000E82FF92F8081882369F780E090E00F9017
:100F20000F900F90DF91CF910895CF93DF9300D072
:100F300000D000D0CDB7DEB79A8389837C836B83E2
:100F40005E834D838B819C81089718F082E090E04E
:100F50004EC289819A818130910509F499C081300E
:100F6000910540F08230910509F420C1039709F4FE
:100F7000ABC138C28D819E81892B51F58AE390E007
:100F80002AE330E0E22FF32F2081422F21E030E0EE
:100F90000B8002C0220F331F0A94E2F7242BE82FA4
:100FA000F92F20838BE390E02BE330E0E22FF32F47
:100FB0002081422F21E030E00B8002C0220F331F3E
:100FC0000A94E2F720952423E82FF92F20830DC2FD
:100FD0008D819E81019751F58AE390E02AE330E00C
:100FE000E22FF32F2081422F21E030E00B8002C05E
:100FF000220F331F0A94E2F720952423E82FF92FBC
:1010000020838BE390E02BE330E0E22FF32F20816D
:10101000422F21E030E00B8002C0220F331F0A94E0
:10102000E2F7242BE82FF92F2083DFC18D819E81E9
:10103000029759F58AE390E02AE330E0E22FF32F9C
:101040002081422F21E030E00B8002C0220F331FAD
:101050000A94E2F720952423E82FF92F20838BE3CD
:1010600090E02BE330E0E22FF32F2081422F21E0AC
:1010700030E00B8002C0220F331F0A94E2F7209564
:101080002423E82FF92F2083B0C182E090E0AFC184
:101090008D819E81892B51F587E390E027E330E035
:1010A000E22FF32F2081422F21E030E00B8002C09D
:1010B000220F331F0A94E2F7242BE82FF92F208305
:1010C00088E390E028E330E0E22FF32F2081422FE5
:1010D00021E030E00B8002C0220F331F0A94E2F7B8
:1010E00020952423E82FF92F20837FC18D819E81B5
:1010F000019751F587E390E027E330E0E22FF32FEB
:101100002081422F21E030E00B8002C0220F331FEC
:101110000A94E2F720952423E82FF92F208388E30F
:1011200090E028E330E0E22FF32F2081422F21E0EE
:1011300030E00B8002C0220F331F0A94E2F7242B09
:10114000E82FF92F208351C18D819E81029759F597
:1011500087E390E027E330E0E22FF32F2081422F56
:1011600021E030E00B8002C0220F331F0A94E2F727
:1011700020952423E82FF92F208388E390E028E3AB
:1011800030E0E22FF32F2081422F21E030E00B806E
:1011900002C0220F331F0A94E2F720952423E82F80
:1011A000F92F208322C182E090E021C18D819E81B0
:1011B000892B51F584E390E024E330E0E22FF32F14
:1011C0002081422F21E030E00B8002C0220F331F2C
:1011D0000A94E2F7242BE82FF92F208385E390E08F
:1011E00025E330E0E22FF32F2081422F21E030E091
:1011F0000B8002C0220F331F0A94E2F720952423AC
:10120000E82FF92F2083F1C08D819E81019751F540
:1012100084E390E024E330E0E22FF32F2081422F9B
:1012200021E030E00B8002C0220F331F0A94E2F766
:1012300020952423E82FF92F208385E390E025E3F0
:1012400030E0E22FF32F2081422F21E030E00B80AD
:1012500002C0220F331F0A94E2F7242BE82FF92F44
:101260002083C3C08D819E81029759F584E390E06D
:1012700024E330E0E22FF32F2081422F21E030E001
:101280000B8002C0220F331F0A94E2F7209524231B
:10129000E82FF92F208385E390E025E330E0E22F6B
:1012A000F32F2081422F21E030E00B8002C0220F7B
:1012B000331F0A94E2F720952423E82FF92F208387
:1012C00094C082E090E093C08D819E81892B51F57E
:1012D00081E390E021E330E0E22FF32F2081422FE1
:1012E00021E030E00B8002C0220F331F0A94E2F7A6
:1012F000242BE82FF92F208382E390E022E330E0D3
:10130000E22FF32F2081422F21E030E00B8002C03A
:10131000220F331F0A94E2F720952423E82FF92F98
:10132000208363C08D819E81019751F581E390E018
:1013300021E330E0E22FF32F2081422F21E030E043
:101340000B8002C0220F331F0A94E2F7209524235A
:10135000E82FF92F208382E390E022E330E0E22FB0
:10136000F32F2081422F21E030E00B8002C0220FBA
:10137000331F0A94E2F7242BE82FF92F208335C07E
:101380008D819E81029759F581E390E021E330E061
:10139000E22FF32F2081422F21E030E00B8002C0AA
:1013A000220F331F0A94E2F720952423E82FF92F08
:1013B000208382E390E022E330E0E22FF32F2081CC
:1013C000422F21E030E00B8002C0220F331F0A942D
:1013D000E2F720952423E82FF92F208306C082E02E
:1013E00090E005C082E090E002C080E090E02696A8
:1013F0000FB6F894DEBF0FBECDBFDF91CF91089539
:10140000CF93DF9300D000D0CDB7DEB79A83898326
:101410007C836B8389819A8181309105E9F18130E8
:10142000910540F08230910509F468C0039709F4F2
:1014300097C0C8C08B819C81892B61F48AE390E0BE
:101440002FEFE82FF92F20838BE390E0E82FF92F7F
:101450001082BBC08B819C81019761F48AE390E08C
:10146000E82FF92F10828BE390E02FEFE82FF92F70
:101470002083ABC08B819C81029759F48AE390E072
:10148000E82FF92F10828BE390E0E82FF92F1082DC
:101490009CC082E090E09BC08B819C81892B61F491
:1014A00087E390E02FEFE82FF92F208388E390E087
:1014B000E82FF92F108289C08B819C81019761F4FC
:1014C00087E390E0E82FF92F108288E390E02FEF78
:1014D000E82FF92F208379C08B819C81029759F4E2
:1014E00087E390E0E82FF92F108288E390E0E82F5F
:1014F000F92F10826AC082E090E069C08B819C81E4
:10150000892B61F484E390E02FEFE82FF92F2083FB
:1015100085E390E0E82FF92F108257C08B819C81E2
:10152000019761F484E390E0E82FF92F108285E3BE
:1015300090E02FEFE82FF92F208347C08B819C810B
:10154000029759F484E390E0E82FF92F108285E3A5
:1015500090E0E82FF92F108238C082E090E037C089
:101560008B819C81892B61F481E390E02FEFE82F40
:10157000F92F208382E390E0E82FF92F108225C015
:101580008B819C81019761F481E390E0E82FF92F32
:10159000108282E390E02FEFE82FF92F208315C00F
:1015A0008B819C81029759F481E390E0E82FF92F19
:1015B000108282E390E0E82FF92F108206C082E0CB
:1015C00090E005C082E090E002C080E090E00F90E3
:1015D0000F900F900F90DF91CF910895CF93DF93ED
:1015E00000D000D000D0CDB7DEB79A8389837C834A
:1015F0006B835E834D838B819C81089718F082E01A
:1016000090E0D1C089819A8181309105D1F18130FA
:10161000910540F08230910509F462C0039709F406
:101620008EC0BCC08D819E810197A9F48BE390E0B0
:101630002BE330E0E22FF32F2081422F21E030E036
:101640000B8002C0220F331F0A94E2F7242BE82FED
:10165000F92F2083A6C08BE390E02BE330E0E22F4C
:10166000F32F2081422F21E030E00B8002C0220FB7
:10167000331F0A94E2F720952423E82FF92F2083C3
:1016800090C08D819E810197A9F488E390E028E3C2
:1016900030E0E22FF32F2081422F21E030E00B8059
:1016A00002C0220F331F0A94E2F7242BE82FF92FF0
:1016B000208377C088E390E028E330E0E22FF32F27
:1016C0002081422F21E030E00B8002C0220F331F27
:1016D0000A94E2F720952423E82FF92F208361C094
:1016E0008D819E810197A9F485E390E025E330E0A8
:1016F000E22FF32F2081422F21E030E00B8002C047
:10170000220F331F0A94E2F7242BE82FF92F2083AE
:1017100048C085E390E025E330E0E22FF32F2081FD
:10172000422F21E030E00B8002C0220F331F0A94C9
:10173000E2F720952423E82FF92F208332C08D81F2
:101740009E810197A9F482E390E022E330E0E22F4A
:10175000F32F2081422F21E030E00B8002C0220FC6
:10176000331F0A94E2F7242BE82FF92F208319C0A6
:1017700082E390E022E330E0E22FF32F2081422F3A
:1017800021E030E00B8002C0220F331F0A94E2F701
:1017900020952423E82FF92F208303C082E090E0D6
:1017A00002C080E090E026960FB6F894DEBF0FBE30
:1017B000CDBFDF91CF910895CF93DF9300D000D0BC
:1017C000CDB7DEB79A8389837C836B8389819A81C5
:1017D0008130910581F08130910530F082309105A2
:1017E00089F00397B1F01CC08BE390E02B81E82FC8
:1017F000F92F208318C088E390E02B81E82FF92F80
:10180000208311C085E390E02B81E82FF92F2083FE
:101810000AC082E390E02B81E82FF92F208303C0D8
:1018200082E090E002C080E090E00F900F900F9077
:101830000F90DF91CF910895CF93DF9300D000D028
:1018400000D0CDB7DEB79A8389837C836B835E83B8
:101850004D838D819E81892B21F08B819C810897FE
:1018600018F082E090E068C089819A81813091050A
:10187000F9F08130910538F08230910571F10397CC
:1018800009F440C054C089E390E0E82FF92F80812B
:10189000882F90E00B8002C0959587950A94E2F717
:1018A000282F21708D819E81E82FF92F208342C03F
:1018B00086E390E0E82FF92F8081882F90E00B805D
:1018C00002C0959587950A94E2F7282F21708D81A3
:1018D0009E81E82FF92F20832DC083E390E0E82F2D
:1018E000F92F8081882F90E00B8002C09595879515
:1018F0000A94E2F7282F21708D819E81E82FF92F1D
:10190000208318C080E390E0E82FF92F8081882F92
:1019100090E00B8002C0959587950A94E2F7282FF6
:1019200021708D819E81E82FF92F208303C082E0F2
:1019300090E002C080E090E026960FB6F894DEBFFB
:101940000FBECDBFDF91CF9108950E94410060E0AE
:1019500080E40E944F05FFCF0E94E00C08F481E074
:1019600008950E940C0D88F09F5798F0B92F992781
:10197000B751B0F0E1F0660F771F881F991F1AF07A
:10198000BA95C9F714C0B13091F00E94260DB1E0AC
:1019900008950C94260D672F782F8827B85F39F0AB
:1019A000B93FCCF3869577956795B395D9F73EF413
:1019B00090958095709561957F4F8F4F9F4F0895BB
:1019C000990F0008550FAA0BE0E8FEEF1616170650
:1019D000E807F907C0F012161306E407F50798F0B8
:1019E000621B730B840B950B39F40A2661F0232BD1
:1019F000242B252B21F408950A2609F4A140A6954D
:101A00008FEF811D811D089557FD9058440F551F7C
:101A100059F05F3F71F04795880F97FB991F61F070
:101A20009F3F79F087950895121613061406551FE7
:101A3000F2CF4695F1DF08C0161617061806991F53
:101A4000F1CF86957105610508940895E894BB2748
:101A500066277727CB0197F908950E94E00C08F4D8
:101A60008FEF08950E94450D0C94B60D0E94A80DAD
:101A700038F00E94AF0D20F0952311F00C949F0DCB
:101A80000C94A50D11240C94270D0E94040D70F3E5
:101A9000959FC1F3950F50E0551F629FF001729F13
:101AA000BB27F00DB11D639FAA27F00DB11DAA1F22
:101AB000649F6627B00DA11D661F829F2227B00D6F
:101AC000A11D621F739FB00DA11D621F839FA00DFA
:101AD000611D221F749F3327A00D611D231F849F4A
:101AE000600D211D822F762F6A2F11249F575040A1
:101AF0009AF0F1F088234AF0EE0FFF1FBB1F661F1C
:101B0000771F881F91505040A9F79E3F510580F0E4
:101B10000C949F0D0C94270D5F3FE4F3983ED4F393
:101B2000869577956795B795F795E7959F5FC1F788
:101B3000FE2B880F911D9695879597F9089597F933
:101B40009F6780E870E060E008959FEF80EC089563
:101B500000240A941616170618060906089500248C
:101B60000A9412161306140605060895092E039406
:101B7000000C11F4882352F0BB0F40F4BF2B11F47A
:101B800060FF04C06F5F7F4F8F4F9F4F0895F894A1
:021B9000FFCF85
:101B92000000000000000000000000000000000043
:101BA2000000010002000300040005000600070017
:081BB200020000000100020026
:00000001FF
