:100000000C942A000C9447000C9447000C94470071
:100010000C9447000C9447000C9447000C94470044
:100020000C9447000C9447000C9447000C94470034
:100030000C9447000C9447000C9447000C94470024
:100040000C9447000C9447000C9447000C94470014
:100050000C94470011241FBECFE5D8E0DEBFCDBF12
:1000600010E0A0E6B0E0E2EEFBE002C005900D92E9
:10007000A03AB107D9F720E0A0EAB0E001C01D9294
:10008000A03AB207E1F70E94A2050C94EF050C9488
:100090000000CF93DF93CDB7DEB728970FB6F89463
:1000A000DEBF0FBECDBF1A8219822CC089819A8112
:1000B000877099279C838B8389819A8196958795F0
:1000C00096958795969587959E838D8389819A814C
:1000D000880F991F805A9F4FE82FF92F4081518137
:1000E0002B813C818D819E81622F732F1BD098873D
:1000F0008F838F819885029751F089819A8101962B
:100100009A83898389819A81809780F201C0000057
:10011000000028960FB6F894DEBF0FBECDBFDF916A
:10012000CF910895CF93DF9300D000D000D0CDB70A
:10013000DEB79A8389837C836B835E834D838B8157
:100140009C81089718F082E090E04EC289819A81E4
:100150008130910509F499C08130910540F08230D9
:10016000910509F420C1039709F4ABC138C28D8110
:100170009E81892B51F58AE390E02AE330E0E22F5B
:10018000F32F2081422F21E030E00B8002C0220FAC
:10019000331F0A94E2F7242BE82FF92F20838BE3F7
:1001A00090E02BE330E0E22FF32F2081422F21E07B
:1001B00030E00B8002C0220F331F0A94E2F7209533
:1001C0002423E82FF92F20830DC28D819E81019772
:1001D00051F58AE390E02AE330E0E22FF32F20810B
:1001E000422F21E030E00B8002C0220F331F0A941F
:1001F000E2F720952423E82FF92F20838BE390E06A
:100200002BE330E0E22FF32F2081422F21E030E07A
:100210000B8002C0220F331F0A94E2F7242BE82F31
:10022000F92F2083DFC18D819E81029759F58AE3E2
:1002300090E02AE330E0E22FF32F2081422F21E0EB
:1002400030E00B8002C0220F331F0A94E2F72095A2
:100250002423E82FF92F20838BE390E02BE330E079
:10026000E22FF32F2081422F21E030E00B8002C0EB
:10027000220F331F0A94E2F720952423E82FF92F49
:100280002083B0C182E090E0AFC18D819E81892B37
:1002900051F587E390E027E330E0E22FF32F208150
:1002A000422F21E030E00B8002C0220F331F0A945E
:1002B000E2F7242BE82FF92F208388E390E028E34E
:1002C00030E0E22FF32F2081422F21E030E00B803D
:1002D00002C0220F331F0A94E2F720952423E82F4F
:1002E000F92F20837FC18D819E81019751F587E38E
:1002F00090E027E330E0E22FF32F2081422F21E02E
:1003000030E00B8002C0220F331F0A94E2F72095E1
:100310002423E82FF92F208388E390E028E330E0BE
:10032000E22FF32F2081422F21E030E00B8002C02A
:10033000220F331F0A94E2F7242BE82FF92F208392
:1003400051C18D819E81029759F587E390E027E3A3
:1003500030E0E22FF32F2081422F21E030E00B80AC
:1003600002C0220F331F0A94E2F720952423E82FBE
:10037000F92F208388E390E028E330E0E22FF32F89
:100380002081422F21E030E00B8002C0220F331F7A
:100390000A94E2F720952423E82FF92F208322C125
:1003A00082E090E021C18D819E81892B51F584E30B
:1003B00090E024E330E0E22FF32F2081422F21E070
:1003C00030E00B8002C0220F331F0A94E2F7242B87
:1003D000E82FF92F208385E390E025E330E0E22F3A
:1003E000F32F2081422F21E030E00B8002C0220F4A
:1003F000331F0A94E2F720952423E82FF92F208356
:10040000F1C08D819E81019751F584E390E024E352
:1004100030E0E22FF32F2081422F21E030E00B80EB
:1004200002C0220F331F0A94E2F720952423E82FFD
:10043000F92F208385E390E025E330E0E22FF32FCE
:100440002081422F21E030E00B8002C0220F331FB9
:100450000A94E2F7242BE82FF92F2083C3C08D8163
:100460009E81029759F584E390E024E330E0E22F87
:10047000F32F2081422F21E030E00B8002C0220FB9
:10048000331F0A94E2F720952423E82FF92F2083C5
:1004900085E390E025E330E0E22FF32F2081422F27
:1004A00021E030E00B8002C0220F331F0A94E2F7F4
:1004B00020952423E82FF92F208394C082E090E038
:1004C00093C08D819E81892B51F581E390E021E3DA
:1004D00030E0E22FF32F2081422F21E030E00B802B
:1004E00002C0220F331F0A94E2F7242BE82FF92FC2
:1004F000208382E390E022E330E0E22FF32F20819B
:10050000422F21E030E00B8002C0220F331F0A94FB
:10051000E2F720952423E82FF92F208363C08D81F3
:100520009E81019751F581E390E021E330E0E22FD5
:10053000F32F2081422F21E030E00B8002C0220FF8
:10054000331F0A94E2F720952423E82FF92F208304
:1005500082E390E022E330E0E22FF32F2081422F6C
:1005600021E030E00B8002C0220F331F0A94E2F733
:10057000242BE82FF92F208335C08D819E8102978F
:1005800059F581E390E021E330E0E22FF32F208161
:10059000422F21E030E00B8002C0220F331F0A946B
:1005A000E2F720952423E82FF92F208382E390E0BF
:1005B00022E330E0E22FF32F2081422F21E030E0D0
:1005C0000B8002C0220F331F0A94E2F720952423E8
:1005D000E82FF92F208306C082E090E005C082E07A
:1005E00090E002C080E090E026960FB6F894DEBF5F
:1005F0000FBECDBFDF91CF910895CF93DF9300D091
:1006000000D0CDB7DEB79A8389837C836B838981E1
:100610009A8181309105E9F18130910540F0823075
:10062000910509F468C0039709F497C0C8C08B818D
:100630009C81892B61F48AE390E02FEFE82FF92F5A
:1006400020838BE390E0E82FF92F1082BBC08B81D1
:100650009C81019761F48AE390E0E82FF92F1082E2
:100660008BE390E02FEFE82FF92F2083ABC08B8135
:100670009C81029759F48AE390E0E82FF92F1082C9
:100680008BE390E0E82FF92F10829CC082E090E08D
:100690009BC08B819C81892B61F487E390E02FEFD5
:1006A000E82FF92F208388E390E0E82FF92F1082BC
:1006B00089C08B819C81019761F487E390E0E82FEA
:1006C000F92F108288E390E02FEFE82FF92F208395
:1006D00079C08B819C81029759F487E390E0E82FE1
:1006E000F92F108288E390E0E82FF92F10826AC07A
:1006F00082E090E069C08B819C81892B61F484E366
:1007000090E02FEFE82FF92F208385E390E0E82F8A
:10071000F92F108257C08B819C81019761F484E38B
:1007200090E0E82FF92F108285E390E02FEFE82F7B
:10073000F92F208347C08B819C81029759F484E371
:1007400090E0E82FF92F108285E390E0E82FF92F51
:10075000108238C082E090E037C08B819C81892B69
:1007600061F481E390E02FEFE82FF92F208382E3FB
:1007700090E0E82FF92F108225C08B819C81019792
:1007800061F481E390E0E82FF92F108282E390E09A
:100790002FEFE82FF92F208315C08B819C810297C2
:1007A00059F481E390E0E82FF92F108282E390E082
:1007B000E82FF92F108206C082E090E005C082E0A9
:1007C00090E002C080E090E00F900F900F900F90AB
:1007D000DF91CF910895CF93DF9300D000D000D068
:1007E000CDB7DEB79A8389837C836B835E834D8329
:1007F0008B819C81089718F082E090E0D1C08981BC
:100800009A8181309105D1F18130910540F082309B
:10081000910509F462C0039709F48EC0BCC08D81B4
:100820009E810197A9F48BE390E02BE330E0E22F67
:10083000F32F2081422F21E030E00B8002C0220FF5
:10084000331F0A94E2F7242BE82FF92F2083A6C048
:100850008BE390E02BE330E0E22FF32F2081422F57
:1008600021E030E00B8002C0220F331F0A94E2F730
:1008700020952423E82FF92F208390C08D819E811D
:100880000197A9F488E390E028E330E0E22FF32F0A
:100890002081422F21E030E00B8002C0220F331F65
:1008A0000A94E2F7242BE82FF92F208377C088E3FE
:1008B00090E028E330E0E22FF32F2081422F21E067
:1008C00030E00B8002C0220F331F0A94E2F720951C
:1008D0002423E82FF92F208361C08D819E81019709
:1008E000A9F485E390E025E330E0E22FF32F2081A7
:1008F000422F21E030E00B8002C0220F331F0A9408
:10090000E2F7242BE82FF92F208348C085E390E0FD
:1009100025E330E0E22FF32F2081422F21E030E069
:100920000B8002C0220F331F0A94E2F72095242384
:10093000E82FF92F208332C08D819E810197A9F481
:1009400082E390E022E330E0E22FF32F2081422F78
:1009500021E030E00B8002C0220F331F0A94E2F73F
:10096000242BE82FF92F208319C082E390E022E3A3
:1009700030E0E22FF32F2081422F21E030E00B8086
:1009800002C0220F331F0A94E2F720952423E82F98
:10099000F92F208303C082E090E002C080E090E065
:1009A00026960FB6F894DEBF0FBECDBFDF91CF9174
:1009B0000895CF93DF9300D000D0CDB7DEB79A83F0
:1009C00089837C836B8389819A818130910581F051
:1009D0008130910530F08230910589F00397B1F0B4
:1009E0001CC08BE390E02B81E82FF92F208318C0E7
:1009F00088E390E02B81E82FF92F208311C085E355
:100A000090E02B81E82FF92F20830AC082E390E049
:100A10002B81E82FF92F208303C082E090E002C0F1
:100A200080E090E00F900F900F900F90DF91CF91AA
:100A30000895CF93DF9300D000D000D0CDB7DEB7BC
:100A40009A8389837C836B835E834D838D819E81B2
:100A5000892B21F08B819C81089718F082E090E02F
:100A600068C089819A8181309105F9F081309105C2
:100A700038F08230910571F1039709F440C054C0F9
:100A800089E390E0E82FF92F8081882F90E00B8098
:100A900002C0959587950A94E2F7282F21708D81E1
:100AA0009E81E82FF92F208342C086E390E0E82F53
:100AB000F92F8081882F90E00B8002C09595879553
:100AC0000A94E2F7282F21708D819E81E82FF92F5B
:100AD00020832DC083E390E0E82FF92F8081882FB9
:100AE00090E00B8002C0959587950A94E2F7282F35
:100AF00021708D819E81E82FF92F208318C080E31B
:100B000090E0E82FF92F8081882F90E00B8002C0C1
:100B1000959587950A94E2F7282F21708D819E8103
:100B2000E82FF92F208303C082E090E002C080E02C
:100B300090E026960FB6F894DEBF0FBECDBFDF91D2
:100B4000CF910895CF93DF931F92CDB7DEB70E9468
:100B50004900AE014F5F5F4F63E070E080E090E0DE
:100B60000E9419058981882319F040E050E002C0F5
:100B700041E050E060E070E080E090E00E94EB0334
:100B8000AE014F5F5F4F64E070E080E090E00E9454
:100B900019058981882319F040E050E002C041E046
:100BA00050E061E070E080E090E00E94EB03AE0175
:100BB0004F5F5F4F65E070E080E090E00E941905B4
:100BC0008981882319F040E050E002C041E050E004
:100BD00062E070E080E090E00E94EB03BACFF8940E
:020BE000FFCF45
:100BE2000000000000000100010001000000000000
:100BF20001000100010001000100010001000100EB
:100C020000000000000000000000000000000000E2
:100C120002000200020002000200020002000200C2
:00000001FF
