:100000000C942A000C9447000C9447000C94470071
:100010000C9447000C9447000C9447000C94470044
:100020000C9447000C9447000C9447000C94470034
:100030000C9447000C9447000C9447000C94470024
:100040000C9447000C9447000C9447000C94470014
:100050000C94470011241FBECFE5D8E0DEBFCDBF12
:1000600010E0A0E6B0E0E6EBFFE102C005900D92E3
:10007000AE3BB107D9F720E0AEEBB0E001C01D9276
:10008000AE3BB207E1F70E94970F0C94D90F0C9486
:100090000000CF93DF9300D000D0CDB7DEB78B83C5
:1000A0006C831A8219828B81833028F082E090E081
:1000B0009A8389830AC18C81823028F082E090E0A3
:1000C0009A83898302C18C81813009F07BC08B8146
:1000D000282F30E0822F932F880F991F820F931FB4
:1000E000880F991F8E599F4FE82FF92F808191819A
:1000F000892B41F58B81282F30E0822F932F880F99
:10010000991F820F931F880F991F8F599F4FE82FB8
:10011000F92F8081682F70E08B81282F30E0822FAB
:10012000932F880F991F820F931F880F991F805A52
:100130009F4FE82FF92F8081882F90E041E050E019
:1001400053D5C3C08B81282F30E0822F932F880F87
:10015000991F820F931F880F991F8E599F4FE82F69
:10016000F92F80819181019741F58B81282F30E013
:10017000822F932F880F991F820F931F880F991F2B
:100180008F599F4FE82FF92F8081682F70E08B8166
:10019000282F30E0822F932F880F991F820F931FF3
:1001A000880F991F805A9F4FE82FF92F8081882F41
:1001B00090E040E050E018D588C082E090E09A835B
:1001C000898383C08C81882309F07BC08B81282F91
:1001D00030E0822F932F880F991F820F931F880F73
:1001E000991F8E599F4FE82FF92F80819181892B7C
:1001F00041F58B81282F30E0822F932F880F991F94
:10020000820F931F880F991F8F599F4FE82FF92F47
:100210008081682F70E08B81282F30E0822F932F10
:10022000880F991F820F931F880F991F805A9F4F25
:10023000E82FF92F8081882F90E040E050E0D4D45F
:1002400044C08B81282F30E0822F932F880F991F75
:10025000820F931F880F991F8E599F4FE82FF92FF8
:1002600080819181019741F58B81282F30E0822F89
:10027000932F880F991F820F931F880F991F8F59F3
:100280009F4FE82FF92F8081682F70E08B81282FF6
:1002900030E0822F932F880F991F820F931F880FB2
:1002A000991F805A9F4FE82FF92F8081882F90E067
:1002B00041E050E099D409C082E090E09A838983BC
:1002C00004C082E090E09A83898389819A810F90AB
:1002D0000F900F900F90DF91CF910895CF93DF9300
:1002E00000D0CDB7DEB719823FC08981282F30E01A
:1002F000822F932F880F991F820F931F880F991FAA
:10030000805A9F4FE82FF92F8081482F4295407FD8
:100310008981282F30E0822F932F880F991F820F19
:10032000931F880F991F8F599F4FE82FF92F8081B6
:10033000840F8A8360E08A81C2D88981282F30E0C7
:10034000822F932F880F991F820F931F880F991F59
:100350008C599F4FE82FF92F80819181682F8981D7
:1003600098DE89818F5F89838981833008F4BDCFCE
:1003700000000F900F90DF91CF910895CF93DF93FE
:1003800000D000D01F92CDB7DEB78B837D836C8306
:100390001A8219828B81833028F082E090E09A8360
:1003A000898365C08C819D81892B29F482E090E04E
:1003B0009A8389835CC08B81882F90E0880F991F76
:1003C000880F991F8D589F4FE82FF92F8081282F74
:1003D00030E08B81882F90E0880F991F880F991F3C
:1003E0008E589F4FE82FF92F8081882F90E04C8105
:1003F0005D81622F732F26D58B81882F90E0880F27
:10040000991F880F991F8C589F4FE82FF92F8081D3
:1004100091818230910518F00297A9F028C08C8153
:100420009D81E82FF92F8081882339F48C819D816B
:1004300021E0E82FF92F20831AC08C819D81E82FBD
:10044000F92F108214C08C819D81E82FF92F8081B3
:10045000813039F48C819D8121E0E82FF92F2083B0
:1004600005C08C819D81E82FF92F108200008981C1
:100470009A810F900F900F900F900F90DF91CF9176
:100480000895CF93DF9300D0CDB7DEB71A821982DB
:1004900048C08981882F90E0880F991F880F991F85
:1004A0008E589F4FE82FF92F8081282F2295207F8B
:1004B0008981882F90E0880F991F880F991F8D5888
:1004C0009F4FE82FF92F8081820F8A8361E08A8114
:1004D000F6D78981882F90E0880F991F880F991F80
:1004E0008C589F4FE82FF92F8081918181309105A1
:1004F00059F08130910518F0029759F00FC062E071
:1005000070E08A8100DA0AC061E070E08A81FBD97C
:1005100005C061E070E08A81F6D9000089818F5FB3
:1005200089838981833008F4B4CF00000F900F9045
:10053000DF91CF910895CF93DF9300D000D000D00A
:10054000CDB7DEB79A8389837C836B835E834D83CB
:100550008B819C81089718F082E090E04EC28981DF
:100560009A818130910509F499C08130910540F05C
:100570008230910509F420C1039709F4ABC138C258
:100580008D819E81892B51F58AE390E02AE330E04A
:10059000E22FF32F2081422F21E030E00B8002C0B8
:1005A000220F331F0A94E2F7242BE82FF92F208320
:1005B0008BE390E02BE330E0E22FF32F2081422FFA
:1005C00021E030E00B8002C0220F331F0A94E2F7D3
:1005D00020952423E82FF92F20830DC28D819E8141
:1005E000019751F58AE390E02AE330E0E22FF32F00
:1005F0002081422F21E030E00B8002C0220F331F08
:100600000A94E2F720952423E82FF92F20838BE327
:1006100090E02BE330E0E22FF32F2081422F21E006
:1006200030E00B8002C0220F331F0A94E2F7242B24
:10063000E82FF92F2083DFC18D819E81029759F524
:100640008AE390E02AE330E0E22FF32F2081422F6B
:1006500021E030E00B8002C0220F331F0A94E2F742
:1006600020952423E82FF92F20838BE390E02BE3C0
:1006700030E0E22FF32F2081422F21E030E00B8089
:1006800002C0220F331F0A94E2F720952423E82F9B
:10069000F92F2083B0C182E090E0AFC18D819E81AF
:1006A000892B51F587E390E027E330E0E22FF32F29
:1006B0002081422F21E030E00B8002C0220F331F47
:1006C0000A94E2F7242BE82FF92F208388E390E0A7
:1006D00028E330E0E22FF32F2081422F21E030E0A9
:1006E0000B8002C0220F331F0A94E2F720952423C7
:1006F000E82FF92F20837FC18D819E81019751F5CD
:1007000087E390E027E330E0E22FF32F2081422FB0
:1007100021E030E00B8002C0220F331F0A94E2F781
:1007200020952423E82FF92F208388E390E028E305
:1007300030E0E22FF32F2081422F21E030E00B80C8
:1007400002C0220F331F0A94E2F7242BE82FF92F5F
:10075000208351C18D819E81029759F587E390E0F6
:1007600027E330E0E22FF32F2081422F21E030E019
:100770000B8002C0220F331F0A94E2F72095242336
:10078000E82FF92F208388E390E028E330E0E22F80
:10079000F32F2081422F21E030E00B8002C0220F96
:1007A000331F0A94E2F720952423E82FF92F2083A2
:1007B00022C182E090E021C18D819E81892B51F57B
:1007C00084E390E024E330E0E22FF32F2081422FF6
:1007D00021E030E00B8002C0220F331F0A94E2F7C1
:1007E000242BE82FF92F208385E390E025E330E0E8
:1007F000E22FF32F2081422F21E030E00B8002C056
:10080000220F331F0A94E2F720952423E82FF92FB3
:100810002083F1C08D819E81019751F584E390E0A2
:1008200024E330E0E22FF32F2081422F21E030E05B
:100830000B8002C0220F331F0A94E2F72095242375
:10084000E82FF92F208385E390E025E330E0E22FC5
:10085000F32F2081422F21E030E00B8002C0220FD5
:10086000331F0A94E2F7242BE82FF92F2083C3C00B
:100870008D819E81029759F584E390E024E330E076
:10088000E22FF32F2081422F21E030E00B8002C0C5
:10089000220F331F0A94E2F720952423E82FF92F23
:1008A000208385E390E025E330E0E22FF32F2081E1
:1008B000422F21E030E00B8002C0220F331F0A9448
:1008C000E2F720952423E82FF92F208394C082E0BB
:1008D00090E093C08D819E81892B51F581E390E05A
:1008E00021E330E0E22FF32F2081422F21E030E09E
:1008F0000B8002C0220F331F0A94E2F7242BE82F4B
:10090000F92F208382E390E022E330E0E22FF32FFF
:100910002081422F21E030E00B8002C0220F331FE4
:100920000A94E2F720952423E82FF92F208363C04F
:100930008D819E81019751F581E390E021E330E0C4
:10094000E22FF32F2081422F21E030E00B8002C004
:10095000220F331F0A94E2F720952423E82FF92F62
:10096000208382E390E022E330E0E22FF32F208126
:10097000422F21E030E00B8002C0220F331F0A9487
:10098000E2F7242BE82FF92F208335C08D819E813B
:10099000029759F581E390E021E330E0E22FF32F55
:1009A0002081422F21E030E00B8002C0220F331F54
:1009B0000A94E2F720952423E82FF92F208382E37D
:1009C00090E022E330E0E22FF32F2081422F21E05C
:1009D00030E00B8002C0220F331F0A94E2F720950B
:1009E0002423E82FF92F208306C082E090E005C081
:1009F00082E090E002C080E090E026960FB6F89486
:100A0000DEBF0FBECDBFDF91CF910895CF93DF93AF
:100A100000D000D0CDB7DEB79A8389837C836B8307
:100A200089819A8181309105E9F18130910540F009
:100A30008230910509F468C0039709F497C0C8C0D3
:100A40008B819C81892B61F48AE390E02FEFE82F62
:100A5000F92F20838BE390E0E82FF92F1082BBC0A1
:100A60008B819C81019761F48AE390E0E82FF92F54
:100A700010828BE390E02FEFE82FF92F2083ABC09B
:100A80008B819C81029759F48AE390E0E82FF92F3B
:100A900010828BE390E0E82FF92F10829CC082E057
:100AA00090E09BC08B819C81892B61F487E390E06F
:100AB0002FEFE82FF92F208388E390E0E82FF92F1C
:100AC000108289C08B819C81019761F487E390E05B
:100AD000E82FF92F108288E390E02FEFE82FF92F0D
:100AE000208379C08B819C81029759F487E390E041
:100AF000E82FF92F108288E390E0E82FF92F108279
:100B00006AC082E090E069C08B819C81892B61F48E
:100B100084E390E02FEFE82FF92F208385E390E026
:100B2000E82FF92F108257C08B819C81019761F4C7
:100B300084E390E0E82FF92F108285E390E02FEF17
:100B4000E82FF92F208347C08B819C81029759F4AD
:100B500084E390E0E82FF92F108285E390E0E82FFE
:100B6000F92F108238C082E090E037C08B819C81E1
:100B7000892B61F481E390E02FEFE82FF92F208398
:100B800082E390E0E82FF92F108225C08B819C81B1
:100B9000019761F481E390E0E82FF92F108282E35E
:100BA00090E02FEFE82FF92F208315C08B819C81D7
:100BB000029759F481E390E0E82FF92F108282E345
:100BC00090E0E82FF92F108206C082E090E005C087
:100BD00082E090E002C080E090E00F900F900F90D4
:100BE0000F90DF91CF910895CF93DF9300D000D085
:100BF00000D0CDB7DEB79A8389837C836B835E8315
:100C00004D838B819C81089718F082E090E0D1C0E1
:100C100089819A8181309105D1F18130910540F02F
:100C20008230910509F462C0039709F48EC0BCC0FC
:100C30008D819E810197A9F48BE390E02BE330E056
:100C4000E22FF32F2081422F21E030E00B8002C001
:100C5000220F331F0A94E2F7242BE82FF92F208369
:100C6000A6C08BE390E02BE330E0E22FF32F20814E
:100C7000422F21E030E00B8002C0220F331F0A9484
:100C8000E2F720952423E82FF92F208390C08D814F
:100C90009E810197A9F488E390E028E330E0E22FF9
:100CA000F32F2081422F21E030E00B8002C0220F81
:100CB000331F0A94E2F7242BE82FF92F208377C003
:100CC00088E390E028E330E0E22FF32F2081422FE9
:100CD00021E030E00B8002C0220F331F0A94E2F7BC
:100CE00020952423E82FF92F208361C08D819E81D8
:100CF0000197A9F485E390E025E330E0E22FF32F9C
:100D00002081422F21E030E00B8002C0220F331FF0
:100D10000A94E2F7242BE82FF92F208348C085E3BB
:100D200090E025E330E0E22FF32F2081422F21E0F5
:100D300030E00B8002C0220F331F0A94E2F72095A7
:100D40002423E82FF92F208332C08D819E810197C3
:100D5000A9F482E390E022E330E0E22FF32F208138
:100D6000422F21E030E00B8002C0220F331F0A9493
:100D7000E2F7242BE82FF92F208319C082E390E0BB
:100D800022E330E0E22FF32F2081422F21E030E0F8
:100D90000B8002C0220F331F0A94E2F72095242310
:100DA000E82FF92F208303C082E090E002C080E0AA
:100DB00090E026960FB6F894DEBF0FBECDBFDF9150
:100DC000CF910895CF93DF9300D000D0CDB7DEB799
:100DD0009A8389837C836B8389819A818130910591
:100DE00081F08130910530F08230910589F00397D0
:100DF000B1F01CC08BE390E02B81E82FF92F20830A
:100E000018C088E390E02B81E82FF92F208311C0D0
:100E100085E390E02B81E82FF92F20830AC082E33D
:100E200090E02B81E82FF92F208303C082E090E02F
:100E300002C080E090E00F900F900F900F90DF9134
:100E4000CF910895CF93DF9300D000D000D0CDB7DD
:100E5000DEB79A8389837C836B835E834D838D8128
:100E60009E81892B21F08B819C81089718F082E06C
:100E700090E068C089819A8181309105F9F08130D4
:100E8000910538F08230910571F1039709F440C063
:100E900054C089E390E0E82FF92F8081882F90E0FB
:100EA0000B8002C0959587950A94E2F7282F217050
:100EB0008D819E81E82FF92F208342C086E390E048
:100EC000E82FF92F8081882F90E00B8002C0959544
:100ED00087950A94E2F7282F21708D819E81E82F53
:100EE000F92F20832DC083E390E0E82FF92F808134
:100EF000882F90E00B8002C0959587950A94E2F7C1
:100F0000282F21708D819E81E82FF92F208318C012
:100F100080E390E0E82FF92F8081882F90E00B800C
:100F200002C0959587950A94E2F7282F21708D814C
:100F30009E81E82FF92F208303C082E090E002C059
:100F400080E090E026960FB6F894DEBF0FBECDBFCE
:100F5000DF91CF910895CF93DF9300D000D000D0E0
:100F6000CDB7DEB79A8389837C836B835E834D83A1
:100F70008B819C81089718F082E090E04EC28981B5
:100F80009A818130910509F499C08130910540F032
:100F90008230910509F420C1039709F4ABC138C22E
:100FA0008D819E81892B51F58AE390E02AE330E020
:100FB000E22FF32F2081422F21E030E00B8002C08E
:100FC000220F331F0A94E2F7242BE82FF92F2083F6
:100FD0008BE390E02BE330E0E22FF32F2081422FD0
:100FE00021E030E00B8002C0220F331F0A94E2F7A9
:100FF00020952423E82FF92F20830DC28D819E8117
:10100000029751F58AE390E02AE330E0E22FF32FD4
:101010002081422F21E030E00B8002C0220F331FDD
:101020000A94E2F720952423E82FF92F20838BE3FD
:1010300090E02BE330E0E22FF32F2081422F21E0DC
:1010400030E00B8002C0220F331F0A94E2F7242BFA
:10105000E82FF92F2083DFC18D819E81039759F5F9
:101060008AE390E02AE330E0E22FF32F2081422F41
:1010700021E030E00B8002C0220F331F0A94E2F718
:1010800020952423E82FF92F20838BE390E02BE396
:1010900030E0E22FF32F2081422F21E030E00B805F
:1010A00002C0220F331F0A94E2F720952423E82F71
:1010B000F92F2083B0C182E090E0AFC18D819E8185
:1010C000892B51F587E390E027E330E0E22FF32FFF
:1010D0002081422F21E030E00B8002C0220F331F1D
:1010E0000A94E2F7242BE82FF92F208388E390E07D
:1010F00028E330E0E22FF32F2081422F21E030E07F
:101100000B8002C0220F331F0A94E2F7209524239C
:10111000E82FF92F20837FC18D819E81029751F5A1
:1011200087E390E027E330E0E22FF32F2081422F86
:1011300021E030E00B8002C0220F331F0A94E2F757
:1011400020952423E82FF92F208388E390E028E3DB
:1011500030E0E22FF32F2081422F21E030E00B809E
:1011600002C0220F331F0A94E2F7242BE82FF92F35
:10117000208351C18D819E81039759F587E390E0CB
:1011800027E330E0E22FF32F2081422F21E030E0EF
:101190000B8002C0220F331F0A94E2F7209524230C
:1011A000E82FF92F208388E390E028E330E0E22F56
:1011B000F32F2081422F21E030E00B8002C0220F6C
:1011C000331F0A94E2F720952423E82FF92F208378
:1011D00022C182E090E021C18D819E81892B51F551
:1011E00084E390E024E330E0E22FF32F2081422FCC
:1011F00021E030E00B8002C0220F331F0A94E2F797
:10120000242BE82FF92F208385E390E025E330E0BD
:10121000E22FF32F2081422F21E030E00B8002C02B
:10122000220F331F0A94E2F720952423E82FF92F89
:101230002083F1C08D819E81029751F584E390E077
:1012400024E330E0E22FF32F2081422F21E030E031
:101250000B8002C0220F331F0A94E2F7209524234B
:10126000E82FF92F208385E390E025E330E0E22F9B
:10127000F32F2081422F21E030E00B8002C0220FAB
:10128000331F0A94E2F7242BE82FF92F2083C3C0E1
:101290008D819E81039759F584E390E024E330E04B
:1012A000E22FF32F2081422F21E030E00B8002C09B
:1012B000220F331F0A94E2F720952423E82FF92FF9
:1012C000208385E390E025E330E0E22FF32F2081B7
:1012D000422F21E030E00B8002C0220F331F0A941E
:1012E000E2F720952423E82FF92F208394C082E091
:1012F00090E093C08D819E81892B51F581E390E030
:1013000021E330E0E22FF32F2081422F21E030E073
:101310000B8002C0220F331F0A94E2F7242BE82F20
:10132000F92F208382E390E022E330E0E22FF32FD5
:101330002081422F21E030E00B8002C0220F331FBA
:101340000A94E2F720952423E82FF92F208363C025
:101350008D819E81029751F581E390E021E330E099
:10136000E22FF32F2081422F21E030E00B8002C0DA
:10137000220F331F0A94E2F720952423E82FF92F38
:10138000208382E390E022E330E0E22FF32F2081FC
:10139000422F21E030E00B8002C0220F331F0A945D
:1013A000E2F7242BE82FF92F208335C08D819E8111
:1013B000039759F581E390E021E330E0E22FF32F2A
:1013C0002081422F21E030E00B8002C0220F331F2A
:1013D0000A94E2F720952423E82FF92F208382E353
:1013E00090E022E330E0E22FF32F2081422F21E032
:1013F00030E00B8002C0220F331F0A94E2F72095E1
:101400002423E82FF92F208306C082E090E005C056
:1014100082E090E002C080E090E026960FB6F8945B
:10142000DEBF0FBECDBFDF91CF910895CF93DF9385
:10143000CDB7DEB728970FB6F894DEBF0FBECDBF8D
:101440001A8219822CC089819A81877099279C837E
:101450008B8389819A8196958795969587959695A0
:1014600087959E838D8389819A81880F991F8258E1
:101470009F4FE82FF92F408151812B813C818D8135
:101480009E81622F732F67DD98878F838F81988568
:10149000029751F089819A8101969A838983898183
:1014A0009A81809780F201C00000000028960FB654
:1014B000F894DEBF0FBECDBFDF91CF910895CF93DB
:1014C000DF9300D000D0CDB7DEB78B836C831A8258
:1014D00019828B81883328F082E090E09A83898397
:1014E00009C28B8182958F70882F90E08F70992729
:1014F0008130910509F486C0823091051CF4892B56
:1015000049F0F4C18230910509F4F8C0039709F459
:1015100071C1ECC18C818823B1F58AE390E02AE3A4
:1015200030E0E22FF32F2081622F2B81222F30E039
:10153000422F532F4F70552721E030E002C0220F79
:10154000331F4A95E2F7262BE82FF92F20838BE3F0
:1015500090E02BE330E0E22FF32F2081622F2B81EC
:10156000222F30E0422F532F4F70552721E030E0DB
:1015700002C0220F331F4A95E2F720952623E82F59
:10158000F92F2083B7C18C818130B9F58AE390E0CF
:101590002AE330E0E22FF32F2081622F2B81222FCC
:1015A00030E0422F532F4F70552721E030E002C02A
:1015B000220F331F4A95E2F720952623E82FF92FB3
:1015C00020838BE390E02BE330E0E22FF32F2081A8
:1015D000622F2B81222F30E0422F532F4F7055273F
:1015E00021E030E002C0220F331F4A95E2F7209538
:1015F0002623E82FF92F20837DC182E090E09A8393
:10160000898378C18C818823B1F587E390E027E353
:1016100030E0E22FF32F2081622F2B81222F30E048
:10162000422F532F4F70552721E030E002C0220F88
:10163000331F4A95E2F7262BE82FF92F208388E302
:1016400090E028E330E0E22FF32F2081622F2B81FE
:10165000222F30E0422F532F4F70552721E030E0EA
:1016600002C0220F331F4A95E2F720952623E82F68
:10167000F92F20833FC18B81882F90E08F709927AD
:101680000197B9F587E390E027E330E0E22FF32FED
:101690002081622F2B81222F30E0422F532F4F7059
:1016A000552721E030E002C0220F331F4A95E2F7B0
:1016B00020952623E82FF92F208388E390E028E364
:1016C00030E0E22FF32F2081622F2B81222F30E098
:1016D000422F532F4F70552721E030E002C0220FD8
:1016E000331F4A95E2F720952623E82FF92F208310
:1016F00001C182E090E09A838983FCC08C818823B9
:10170000B1F584E390E024E330E0E22FF32F208171
:10171000622F2B81222F30E0422F532F4F705527FD
:1017200021E030E002C0220F331F4A95E2F7262B5A
:10173000E82FF92F208385E390E025E330E0E22FC6
:10174000F32F2081622F2B81222F30E0422F532F45
:101750004F70552721E030E002C0220F331F4A9519
:10176000E2F720952623E82FF92F2083C3C08B8131
:10177000882F90E08F7099270197B9F584E390E066
:1017800024E330E0E22FF32F2081622F2B81222FE0
:1017900030E0422F532F4F70552721E030E002C038
:1017A000220F331F4A95E2F720952623E82FF92FC1
:1017B000208385E390E025E330E0E22FF32F2081C2
:1017C000622F2B81222F30E0422F532F4F7055274D
:1017D00021E030E002C0220F331F4A95E2F7209546
:1017E0002623E82FF92F208385C082E090E09A839A
:1017F000898380C08C818823B1F581E390E021E367
:1018000030E0E22FF32F2081622F2B81222F30E056
:10181000422F532F4F70552721E030E002C0220F96
:10182000331F4A95E2F7262BE82FF92F208382E316
:1018300090E022E330E0E22FF32F2081622F2B8112
:10184000222F30E0422F532F4F70552721E030E0F8
:1018500002C0220F331F4A95E2F720952623E82F76
:10186000F92F208347C08B81882F90E08F709927B4
:101870000197B9F581E390E021E330E0E22FF32F07
:101880002081622F2B81222F30E0422F532F4F7067
:10189000552721E030E002C0220F331F4A95E2F7BE
:1018A00020952623E82FF92F208382E390E022E37E
:1018B00030E0E22FF32F2081622F2B81222F30E0A6
:1018C000422F532F4F70552721E030E002C0220FE6
:1018D000331F4A95E2F720952623E82FF92F20831E
:1018E00009C082E090E09A83898304C082E090E09E
:1018F0009A83898389819A810F900F900F900F901E
:10190000DF91CF910895CF93DF9300D000D01F9245
:10191000CDB7DEB78B837D836C831A8219828B816E
:10192000883328F082E090E09A838983F6C28C8124
:101930009D818230910509F4F9C18330910509F444
:10194000FAC0892B09F0E9C28B8182958F70882FAC
:1019500090E08F7099278130910509F444C082305E
:1019600091051CF4892B49F0E0C08230910509F4FF
:1019700070C0039709F4A3C0D8C08AE390E02AE3BB
:1019800030E0E22FF32F2081622F2B81222F30E0D5
:10199000422F532F4F70552721E030E002C0220F15
:1019A000331F4A95E2F7262BE82FF92F20838BE38C
:1019B00090E02BE330E0E22FF32F2081622F2B8188
:1019C000222F30E0422F532F4F70552721E030E077
:1019D00002C0220F331F4A95E2F720952623E82FF5
:1019E000F92F2083A7C087E390E027E330E0E22FC0
:1019F000F32F2081622F2B81222F30E0422F532F93
:101A00004F70552721E030E002C0220F331F4A9566
:101A1000E2F7262BE82FF92F208388E390E028E3D4
:101A200030E0E22FF32F2081622F2B81222F30E034
:101A3000422F532F4F70552721E030E002C0220F74
:101A4000331F4A95E2F720952623E82FF92F2083AC
:101A500071C084E390E024E330E0E22FF32F208193
:101A6000622F2B81222F30E0422F532F4F705527AA
:101A700021E030E002C0220F331F4A95E2F7262B07
:101A8000E82FF92F208385E390E025E330E0E22F73
:101A9000F32F2081622F2B81222F30E0422F532FF2
:101AA0004F70552721E030E002C0220F331F4A95C6
:101AB000E2F720952623E82FF92F20833BC081E30E
:101AC00090E021E330E0E22FF32F2081622F2B8181
:101AD000222F30E0422F532F4F70552721E030E066
:101AE00002C0220F331F4A95E2F7262BE82FF92F69
:101AF000208382E390E022E330E0E22FF32F208185
:101B0000622F2B81222F30E0422F532F4F70552709
:101B100021E030E002C0220F331F4A95E2F7209502
:101B20002623E82FF92F208305C082E090E09A83D6
:101B30008983F3C1F2C18B8182958F70882F90E0E9
:101B40008F7099278130910509F445C08230910545
:101B50001CF4892B49F0E4C08230910509F472C06D
:101B6000039709F4A6C0DCC08AE390E02AE330E0E2
:101B7000E22FF32F2081622F2B81222F30E0422F82
:101B8000532F4F70552721E030E002C0220F331F42
:101B90004A95E2F720952623E82FF92F20838BE33F
:101BA00090E02BE330E0E22FF32F2081622F2B8196
:101BB000222F30E0422F532F4F70552721E030E085
:101BC00002C0220F331F4A95E2F720952623E82F03
:101BD000F92F2083AAC087E390E027E330E0E22FCB
:101BE000F32F2081622F2B81222F30E0422F532FA1
:101BF0004F70552721E030E002C0220F331F4A9575
:101C0000E2F720952623E82FF92F208388E390E040
:101C100028E330E0E22FF32F2081622F2B81222F47
:101C200030E0422F532F4F70552721E030E002C0A3
:101C3000220F331F4A95E2F720952623E82FF92F2C
:101C4000208373C084E390E024E330E0E22FF32F9D
:101C50002081622F2B81222F30E0422F532F4F7093
:101C6000552721E030E002C0220F331F4A95E2F7EA
:101C700020952623E82FF92F208385E390E025E3A4
:101C800030E0E22FF32F2081622F2B81222F30E0D2
:101C9000422F532F4F70552721E030E002C0220F12
:101CA000331F4A95E2F720952623E82FF92F20834A
:101CB0003CC081E390E021E330E0E22FF32F20816C
:101CC000622F2B81222F30E0422F532F4F70552748
:101CD00021E030E002C0220F331F4A95E2F7209541
:101CE0002623E82FF92F208382E390E022E330E0DF
:101CF000E22FF32F2081622F2B81222F30E0422F01
:101D0000532F4F70552721E030E002C0220F331FC0
:101D10004A95E2F720952623E82FF92F208305C066
:101D200082E090E09A838983F8C0F7C08B81829526
:101D30008F70882F90E08F7099278130910509F47A
:101D400044C0823091051CF4892B49F0E0C08230F8
:101D5000910509F470C0039709F4A3C0D8C08AE3C1
:101D600090E02AE330E0E22FF32F2081622F2B81D5
:101D7000222F30E0422F532F4F70552721E030E0C3
:101D800002C0220F331F4A95E2F720952623E82F41
:101D9000F92F20838BE390E02BE330E0E22FF32F49
:101DA0002081622F2B81222F30E0422F532F4F7042
:101DB000552721E030E002C0220F331F4A95E2F799
:101DC000262BE82FF92F2083A7C087E390E027E395
:101DD00030E0E22FF32F2081622F2B81222F30E081
:101DE000422F532F4F70552721E030E002C0220FC1
:101DF000331F4A95E2F720952623E82FF92F2083F9
:101E000088E390E028E330E0E22FF32F2081622F77
:101E10002B81222F30E0422F532F4F70552721E086
:101E200030E002C0220F331F4A95E2F7262BE82F3D
:101E3000F92F208371C084E390E024E330E0E22FA7
:101E4000F32F2081622F2B81222F30E0422F532F3E
:101E50004F70552721E030E002C0220F331F4A9512
:101E6000E2F720952623E82FF92F208385E390E0E1
:101E700025E330E0E22FF32F2081622F2B81222FE8
:101E800030E0422F532F4F70552721E030E002C041
:101E9000220F331F4A95E2F7262BE82FF92F2083D4
:101EA0003BC081E390E021E330E0E22FF32F20817B
:101EB000622F2B81222F30E0422F532F4F70552756
:101EC00021E030E002C0220F331F4A95E2F720954F
:101ED0002623E82FF92F208382E390E022E330E0ED
:101EE000E22FF32F2081622F2B81222F30E0422F0F
:101EF000532F4F70552721E030E002C0220F331FCF
:101F00004A95E2F7262BE82FF92F208305C082E0BF
:101F100090E09A83898300C0000089819A810F90A4
:101F20000F900F900F900F90DF91CF910895CF9366
:101F3000DF9300D01F92CDB7DEB71B821A821982C1
:101F4000BE016D5F7F4F80E00E94BE01BE016E5FEB
:101F50007F4F81E00E94BE01BE016F5F7F4F82E034
:101F60000E94BE018B81813031F461E080E00E94EB
:101F7000490061E008C08A81813041F460E080E07E
:101F80000E94490060E081E00E944900898181301F
:101F900011F461E001C060E082E00E9449002FEF8F
:101FA00089E698E1215080409040E1F700C00000B0
:061FB000C7CFF894FFCF3B
:101FB6000103000000000206010000000304000007
:101FC60000000102000002050100030302000000F8
:101FD60000000000010001000100000000000100F7
:101FE60001000100010001000100010001000000E4
:101FF60000000000000000000000000000000200D9
:0E2006000200020002000200020002000200BE
:00000001FF
